:020000040800F2
:10000000A83100201D020008D70600089506000848
:10001000D3060008D50400089B110008000000006A
:10002000000000000000000000000000A50D000816
:10003000D904000800000000690A0008B90E000891
:10004000370200083702000837020008210D0008B7
:10005000370200083702000837020008370200089C
:10006000370200083702000837020008370200088C
:10007000370200083702000837020008370200087C
:10008000370200083702000837020008370200086C
:10009000370200083702000837020008370200085C
:1000A000370200083702000837020008370200084C
:1000B0001D0F0008350F000837020008370200083E
:1000C000370200083702000837020008370200082C
:1000D00037020008790F00083702000837020008CD
:1000E000370200083702000837020008370200080C
:1000F00037020008370200083702000837020008FC
:1001000037020008370200083702000837020008EB
:1001100037020008370200083702000837020008DB
:1001200037020008370200083702000837020008CB
:1001300000F002F800F063F80AA090E8000C824496
:100140008344AAF10107DA4501D100F058F8AFF273
:10015000090EBAE80F0013F0010F18BFFB1A43F0A5
:1001600001031847A8120000C812000010F8013B54
:100170000A4413F0030408BF10F8014B1D1108BF17
:1001800010F8015B641E05D010F8016B641E01F8C5
:10019000016BF9D1002D15D010F8014B03F00C03C1
:1001A0000C2BA1EB04040ABF10F8013BA4EB831451
:1001B000A4EB032405F1010314F8016B5B1E01F8A5
:1001C000016BF9D5914238BF10F8013BD1D370478C
:1001D0000023002400250026103A28BF78C1FBD850
:1001E000520728BF30C148BF0B607047642900F038
:1001F0007780002070471FB51FBD10B510BD00F0FF
:100200003BF91146FFF7F7FF01F022F800F059F92A
:1002100003B4FFF7F2FF03BC00F0C1FF09488047B9
:1002200009480047FEE7FEE7FEE7FEE7FEE7FEE7D8
:10023000FEE7FEE7FEE7FEE704480549054A064BF0
:1002400070470000BD0E000831010008A82B0020F7
:10025000A8310020A82D0020A82D00207047000004
:100260000FB4044910B503AA029800F0D3F810BCEB
:100270005DF814FB581E00202DE9F0410E4604469F
:10028000002020622046E168884730B3252805D049
:10029000D4E901219047206A401CF2E7E16820463A
:1002A00000278847050018D0A5F14100192802D879
:1002B00020354FF400673246294620462760FFF775
:1002C00095FF40B1012804D0F61D26F00706083638
:1002D000D8E7361DD6E72846DAE7206ABDE8F08180
:1002E0002DE9F0410646002410687529314616A50F
:1002F00010D0AFF30080002802DA404213A507E0D7
:1003000031688A0701D512A502E0490704D511A575
:10031000012401E0AFF3008000210A2206F1240746
:1003200009E0B0FBF2FCB0FBF2F302FB1C00303042
:1003300078541846491C0028F3D123462A463046F3
:10034000BDE8F04100F00CB8000000002D000000F6
:100350002B00000020000000704770477047704776
:100360002DE9F0470D4699469246044600F12408CF
:100370000168880604D5E06921F01001216000E0E1
:100380000120A84201DD471B00E00027A1697A197E
:1003900002EB0900081AA0612078C00602D42046AA
:1003A000AFF30080002608E0D4E901211AF8060026
:1003B0009047206A401C761C20624E45F4DB207872
:1003C000C0060AD52046AFF3008006E0D4E901213B
:1003D00030209047206A401C2062381EA7F1010798
:1003E000F4DC07E0D4E9012118F805009047206A01
:1003F000401C2062281EA5F10105F3DC2046AFF366
:1004000000802078000602D50220BDE8F087012098
:10041000FBE70000074B70B50D467B4400F011F878
:100420000446284600F020F810B14FF0FF3070BDB0
:10043000204670BD170E000001694A1C0261087851
:10044000704700B58FB0CDE9013100210591054914
:100450007944CDE9031011466846FFF70DFF0FB050
:1004600000BD0000E5FFFFFF007B00F0800070474B
:1004700000487047482B00207546FFF7F9FFAE464D
:1004800005006946534620F00700854618B020B5A0
:10049000FFF7D2FEBDE820404FF000064FF0000706
:1004A0004FF000084FF0000B21F00701AC46ACE81C
:1004B000C009ACE8C009ACE8C009ACE8C0098D4689
:1004C000704710B50446AFF300802046BDE81040E9
:1004D000FFF79EBE00BFFEE77047002100E0491C09
:1004E0008142FCD370472DE9F041024600250026E9
:1004F000002000230024002791F803C00CF00F0512
:1005000091F803C00CF0100CBCF1000F03D091F86F
:1005100002C04CEA050591F800C0BCF1000F31D0D3
:10052000146800202BE04FF0010C0CFA00F3B1F836
:1005300000C00CEA03069E4220D183004FF00F0C4E
:100540000CFA03F7BC4305FA03FC4CEA040491F8E7
:1005500003C0BCF1280F06D14FF0010C0CFA00FCCF
:10056000C2F814C00AE091F803C0BCF1480F05D1ED
:100570004FF0010C0CFA00FCC2F810C0401C082817
:10058000D1D31460B1F800C0BCF1FF0F34DD546862
:1005900000202EE000F1080C4FF0010808FA0CF3DF
:1005A000B1F800C00CEA03069E4221D183004FF04F
:1005B0000F0C0CFA03F7BC4305FA03FC4CEA0404E5
:1005C00091F803C0BCF1280F05D100F1080C08FA1E
:1005D0000CF8C2F8148091F803C0BCF1480F07D1A1
:1005E00000F1080C4FF0010808FA0CF8C2F810806E
:1005F000401C0828CED35460BDE8F081F0B50A460F
:10060000002300240021002500F00046B6F1004F31
:1006100002D11D4EF16901E01B4E7168C0F3034524
:1006200083B200F44016B6F5401F08D121F0706186
:10063000154E766826F07066134F7E6012E000F467
:100640008016B6F5801F06D1032606FA05F4A143ED
:1006500041F0706106E0460D360103FA06F6B1433B
:1006600041F0706122B1460D360103FA06F63143BE
:1006700000F00046B6F1004F02D1034EF16101E0F7
:10068000014E7160F0BD0000000001404161704703
:100690000161704700BFFEE70146CA1701EB927285
:1006A0009210A1EB820292B9642091FBF0F200FB60
:1006B000121050B94FF4C87091FBF0F200FB121009
:1006C00008B9012070470020FCE70120FAE700206C
:1006D000F8E700BFFEE7704770B5002100230F2246
:1006E000C47804B3154C246804F4E064C4F5E064F1
:1006F000210AC1F10403CA40447804FA03F1847862
:100700001440214309010E4C0678A155047804F0E9
:100710001F050124AC4005786D11AD0005F1E02501
:10072000C5F8004109E0047804F01F050124AC403D
:10073000044D0678761145F8264070BD0CED00E0BA
:1007400000E400E080E100E002490143024A116058
:10075000704700000000FA050CED00E070B50024C1
:1007600018E004F1B000002100F018F9002108465B
:1007700000F014F90021102000F010F9002505E028
:100780000121002000F00AF9681CC5B2802DF7DBBA
:10079000601CC4B2082CE4DB70BD000010B54FF43F
:1007A00080710848FFF774FF80210648FFF770FF4B
:1007B00080210448FFF76AFF4FF480710148FFF77A
:1007C00065FF10BD000C014010B54FF48071064864
:1007D000FFF75EFF80210448FFF758FF80210248A1
:1007E000FFF756FF10BD0000000C014010B54FF49C
:1007F00080710448FFF74CFF4FF480710148FFF708
:1008000045FF10BD000C014008B50121092000F092
:100810002DF901214248FFF7F1FE4FF4C070ADF809
:10082000000010208DF8030003208DF802006946B7
:100830003C48FFF758FE4FF4C0713A48FFF728FFD5
:100840003948FFF74AFE0021AE2000F0A7F800214A
:10085000084600F0A3F80021102000F09FF80021C6
:10086000402000F09BF80021B02000F097F8002114
:10087000812000F093F80021FF2000F08FF8002184
:10088000A12000F08BF80021A62000F087F80021BD
:10089000A82000F083F800213F2000F07FF800211D
:1008A000C82000F07BF80021D32000F077F8002169
:1008B000084600F073F80021D52000F06FF8002101
:1008C000802000F06BF80021D82000F067F80021AC
:1008D000052000F063F80021D92000F05FF8002126
:1008E000F12000F05BF80021DA2000F057F8002139
:1008F000122000F053F80021DB2000F04FF8002117
:10090000302000F04BF800218D2000F047F8002146
:10091000142000F043F80021AF2000F03FF808BD9C
:1009200000023000000C0140801A060070B500245F
:100930001BE004F1B000002100F030F8002108466F
:1009400000F02CF80021102000F028F8002508E025
:10095000074901EBC501085D012100F01FF8681C83
:10096000C5B2802DF4DB601CC4B2082CE1DB70BD85
:100970003C27002070B504460D4605F1B00000216B
:1009800000F00CF8102141EA1410002100F006F8E4
:1009900004F00F00002100F001F870BD70B50446AE
:1009A0000D461DB1E0B200F049F802E0E0B200F0FF
:1009B0002FF870BD2DE9F04105462C464FF48071AB
:1009C0001248FFF763FE00261BE0274607F080076A
:1009D000802F04D180210D48FFF75AFE03E08021CB
:1009E0000A48FFF753FE6006040E4FF48071074873
:1009F000FFF74EFE4FF480710448FFF747FE701C6E
:100A0000C6B2082EE1DBBDE8F0810000000C014019
:100A100010B50446FFF7C2FE7820FFF7CBFFFFF7C3
:100A2000E5FE0020FFF7C6FFFFF7E0FE2046FFF7D8
:100A3000C1FFFFF7DBFEFFF7C7FE10BD10B5044690
:100A4000FFF7ACFE7820FFF7B5FFFFF7CFFE4020A1
:100A5000FFF7B0FFFFF7CAFE2046FFF7ABFFFFF737
:100A6000C5FEFFF7B1FE10BD7047000029B1064A70
:100A700092690243044B9A6104E0034A92698243FB
:100A8000014B9A61704700000010024030B5002110
:100A90000022002400232D4D6D6805F00C0121B1CA
:100AA000042905D0082923D105E0294D056022E05D
:100AB000274D05601FE0254D6D6805F47012234D2C
:100AC0006D6805F48034022505EB92421CB9214D76
:100AD000554305600BE01D4D6D6805F400351DB1F3
:100AE0001C4D5543056002E0194D5543056002E079
:100AF000174D056000BF00BF144D6D6805F0F00193
:100B00000909154D6B5C0568DD4045600F4D6D684A
:100B100005F4E061090A104D6B5C4568DD408560B5
:100B20000A4D6D6805F46051C90A0B4D6B5C456850
:100B3000DD40C560054D6D6805F44041890B074DEA
:100B40006B5CC568B5FBF3F5056130BD0010024074
:100B500000127A0000093D005E1E00206E1E00207B
:100B6000024909888143014A1180704704280040E6
:100B700070B500260024002500F07AF806463848B3
:100B8000B6FBF0F437480088A0423CD035490C80D1
:100B900040F2B27510E02846FFF77EFD40B1B4F593
:100BA000B77F02D3A4F5B77404E0681C85B206E0F1
:100BB000A4F26D14681C85B2B4F5B67FEBD800BF03
:100BC00029488580002516E027498888FFF764FDBD
:100BD00030B1012D04D11D2C01D31D3C09E00CE0E6
:100BE0002248405DA04203D82048405D241A00E01E
:100BF00003E0681C85B21C2CE6D200BF681C1A49B1
:100C00008871601CC8711648B6FBF0F100FB1164D6
:100C10004FF46160B4FBF0F0134908704FF4616069
:100C2000B4FBF0F100FB11403C21B0FBF1F00E49A8
:100C300048704FF46160B4FBF0F100FB11403C21BF
:100C4000B0FBF1F201FB1200074988700B46DA791C
:100C50009979988800F028F803490872002070BD3F
:100C600080510100721E00203C2B0020001400085F
:100C7000002103480188001F008841EA00407047B6
:100C80001C28004001460020064A12880A40D0B2C3
:100C9000044A121F12880A4012B108B1012000E074
:100CA0000020704704280040F0B503460C46154666
:100CB000642093FBF0F0C6B2642093FBF0F700FBD6
:100CC0001730C1B2132E02DD01F16400C1B2084633
:100CD000CF1701EB977701EBA707BAB2072092FB7A
:100CE000F0F700FB172082B25719601EDFF82CC006
:100CF0001CF80000384482B2CF1701EB9777BF1081
:100D0000A1EB87071FB9032C01DA501E82B207201E
:100D100092FBF0F700FB1720C0B2F0BDF4130008FF
:100D20000EB50120FFF7AEFF08B1FFF721FF02204B
:100D3000FFF7A8FFA0B10220FFF712FFFFF718FF8F
:100D40000A48807809494978084A1278CDE9002193
:100D500002900648C3798279818805A0FFF780FA5E
:100D60000520FFF7FDFE00F013F80EBD3C2B002020
:100D7000416C61726D2054696D653A25642D25645E
:100D80002D25642025643A25643A25640A00000074
:100D900000BF0348008800F020000028F9D0704709
:100DA00004280040704710B500F002F810BD0000A4
:100DB0000CB50020019000903348006840F480306A
:100DC0003149086000BF3048006800F400300090EE
:100DD0000198401C0190009818B90198B0F5A06FD7
:100DE000F1D12948006800F4003010B101200090D2
:100DF00001E0002000900098012843D123480068BA
:100E000040F01000214908600846006820F0030007
:100E100008600846006840F0020008601A48406810
:100E2000194948600846406848600846406840F4F0
:100E3000806048600846406820F47C10486008469E
:100E4000406840F4E81048600846006840F0807050
:100E5000086000BF0C48006800F000700028F9D05E
:100E60000948406820F00300074948600846406888
:100E700040F00200486000BF0348406800F00C00EA
:100E80000828F9D10CBD00000010024000200240EB
:100E9000042808D14FF0E021096941F004014FF026
:100EA000E022116107E04FF0E021096921F004011F
:100EB0004FF0E022116170477047000010B51348F1
:100EC000006840F001001149086008464068104978
:100ED00008400E494860084600680E4908400B4922
:100EE00008600846006820F48020086008464068D2
:100EF00020F4FE0048604FF41F008860FFF753FFA6
:100F00004FF000600449086010BD0000001002406E
:100F10000000FFF8FFFFF6FE08ED00E010B501212C
:100F2000880700F018F818B10121880700F010F8C0
:100F300010BD000010B50121044800F00CF818B1F4
:100F40000121024800F004F810BD00000004004038
:100F5000CA430282704730B50246002000230024B5
:100F6000158A05EA0103958905EA010413B10CB15C
:100F7000012000E0002030BD10B540F225511D4891
:100F800000F04AF810B31B4800F002F9C4B21A4846
:100F9000008800F40040C8B91748008800F4804079
:100FA00060B10A2C03D000201349088020E01248C9
:100FB000008840F400401049088019E00D2C06D14B
:100FC0000D48008840F480400B49088010E00A4832
:100FD0000088C0F30D0009490C5407480088401CE4
:100FE0000549088008460088C72801DD00200880E0
:100FF00010BD0000003801405C1E00207426002057
:1010000021B1828942F40052828104E082894DF646
:10101000FF731A408281704770B502460024002396
:101020000025002040F66A16B14200D100BFC1F38E
:10103000421501F01F03012606FA03F3012D02D128
:101040009689334006E0022D02D1168A334001E032
:10105000968A33400C12012606FA04F416883440AE
:1010600013B10CB1012000E0002070BDF0B50346C3
:10107000002400260025002040F66A17B94200D15E
:1010800000BF1846C1F3421401F01F06012707FAFA
:1010900006F5012C01D10C3004E0022C01D11030F6
:1010A00000E014301AB107682F43076002E00768B8
:1010B000AF430760F0BD00002DE9F04786B005465C
:1010C0000E460024A24600BFA1460027B08900B109
:1010D00000BF2F462C8A4CF6FF700440F088044372
:1010E0002C82AC894EF6F3100440B0883189084355
:1010F000718908430443AC81AC8A4FF6FF40044039
:10110000B0890443AC8201A8FFF7C0FC1F488742A6
:1011100002D1DDF810A001E0DDF80CA0A88900F4F0
:10112000004040B10AEBCA0000EB0A1031684900E8
:10113000B0FBF1F807E00AEBCA0000EB0A103168D7
:101140008900B0FBF1F86420B8FBF0F0040120093D
:10115000642101FB1089A88900F4004040B13220CD
:1011600000EBC900B0FBF1F000F00700044308E019
:10117000322000EB09106421B0FBF1F000F00F0009
:1011800004432C8106B0BDE8F08700000038014020
:1011900001468888C0F30800704700BFFEE700BF23
:1011A0007047000010B56FF00400FFF771FE0A48A9
:1011B00000680A49B0FBF1F0094908700846007858
:1011C00000EB4001C1EBC0104FF6FF7101EAC00017
:1011D0000449088010BD0000401E002000127A0063
:1011E000541E0020561E00200146114A12884A4310
:1011F0004FF0E0235A6100229A611A46126942F0C8
:1012000001021A6100BF4FF0E022106900F00102F4
:101210001AB100F48032002AF5D04FF0E0221269B2
:1012200022F001024FF0E0231A6100229A61704718
:10123000561E002000BF054A128802F04002002A14
:10124000F9D0C2B2014B1B1D1A8070470038014013
:101250004FF0800A4FF00809FFF7A4FF4FF4A06099
:10126000FFF772FA4FF4E13000F074F84FF47A703F
:10127000FFF7BAFFFFF7C8FAFFF758FBFFF76EFA60
:1012800000240FE0002509E004FB09502D49085C0B
:101290002D4901EBC4014855681CC5B24D45F3DB2F
:1012A000601CC4B25445EDDB00240FE0002509E0CA
:1012B00004FB09502549085C254901EBC401485548
:1012C000681CC5B24D45F3DB601CC4B25445EDDB70
:1012D00037E0002733E04FF000082BE04146384666
:1012E000FFF748FB002609E0174901EBC60111F89A
:1012F00008000121FFF752FB701CC6B2C7F1800045
:10130000B042F1DC41460020FFF734FBC7F180001A
:10131000C6B209E00E4901EBC60111F8080001212F
:10132000FFF73CFB701CC6B2802EF3DB08F1010016
:1013300000F0FF08B8F1080FD0DB781CC7B2FF2F10
:10134000C9DBC6E7401A0020741E002040160020AA
:101350007422002010B586B00446012144F2040036
:10136000FFF784FB4FF40070ADF8140003208DF8F4
:10137000160018208DF8170005A91C48FFF7B3F8D0
:101380004FF48060ADF8140004208DF8170005A913
:101390001648FFF7A8F825208DF8000003208DF8E7
:1013A00001008DF8020001208DF803006846FFF768
:1013B00093F901940020ADF80800ADF80A00ADF8EB
:1013C0000C00ADF810000C20ADF80E0001A9084883
:1013D000FFF772FE012240F225510548FFF746FE55
:1013E00001210348FFF70CFE06B010BD00080140C4
:1013F000003801400003030601040602050003054E
:101400001F1C1F1E1F1E1F1F1E1F1E1F2C14000827
:1014100000000020741E00006C010008B41B0008CE
:10142000741E002034130000D001000802380001AF
:1014300000076AC0C0C0E080000110084060F0F002
:10144000F0E0E079128079300A010F7FFFFFFEFCA7
:10145000F0C08D13F8FF0D0160833007818383870F
:10146000CFFF013005FEFEFF7F01210A3112000D82
:101470004C800080C0E0E0F0F8F8FC7820FA4005ED
:101480001E1E1E1F01417C8006FF0F0703011F4027
:10149000050103073F83C33F1F1A0148FA11DB20F0
:1014A00004F0F8FCF421FDB005F8E0C0801C36FC27
:1014B00002137F7E01223E01064D1EFC1005070F20
:1014C0000F07F421F5316B14057F1F3F3F83210186
:1014D000123F0121961BFDF81E391B095B86121C69
:1014E0006D331F0395280403071F8456F0860405F7
:1014F00055010303077E05181900046C01010172F0
:101500001F8080F903110172F001210E5D95030D1A
:10151000587A03397F18047C3E1FE1500407030307
:10152000F63A8086210D257B000A4E0F1F1F3E7C58
:10153000F8F8F0C089FC08E0F8FEFF3F0F075803F9
:101540002D8A03F9AA39155D970401447E1DD8033D
:101550000E131FD4034D75040D112E030E4A030EF6
:10156000052E07F0030113671D7804BC080F1F3F09
:101570007EFCF8F00F041D11042DA2030D49FD039C
:1015800035520D186E0631885E1F730446C0AE0ECC
:101590004D03810431EB395F29EDAA80ED110D3D3A
:1015A00014031DFA052F783807040D5B910349ECED
:1015B00019EE8101210F0F65030308043DE4061DA8
:1015C000E50653F8FC01110B3D97070D600D085C13
:1015D0000480F0FC6B071DEA061E3F0B041101603E
:1015E000051F1F3F7F140C045BFEF8F08404616844
:1015F000C804FFFFE3EF82E71A0D5B7C063D70062F
:101600005D7F083579358775140C045F7F1F07FDF2
:1016100005840401070F7185111E7F72030E5101AD
:1016200002063D7708196B1D570825F23C051F1F60
:101630000E0CF1081D7804790A3F1F0F0D091E0CCE
:101640000006190E28053F3E7E7E950A43F092392A
:101650005E7EF9770AB1E22D7806BD75034D090467
:101660003D200326F9130E4B1FF20349EE41E4110E
:10167000E69101463F1B4E1F12030D4F0D043EC065
:10168000F003E2FC0130047C7C3C01F27C1A2D1258
:10169000040E46E01D0C0A10FE6B4DE50A291B4D99
:1016A00079064D88060910960E4BFCF503A1788E3D
:1016B000F875032D8B030215F888014380AE7FD5A2
:1016C0000B3D010511893DF50529107109327F880F
:1016D0009D980702457F801DDE058405F0F0FCFC27
:1016E0000E0D13DC089380C0F215111933074AFC64
:1016F000FF80B10E35732DED0B2D790796F08F011C
:1017000012340D3CF3046D5E0676F8E30117012EEA
:1017100007170C7C0480C0F09A040D44FF033DDEE3
:1017200008423F010004143E3E3C013D8D033D0B49
:101730000421272D270B0D2402092F80E042063DAE
:10174000C20E1D4D0D3FFCF866094DCE0D1FFF1F4B
:101750006A0B5F070F5C07C68089CE076B03C6E084
:10176000AEB61FB55EF89F066E00A70E2DB8064DEB
:10177000350F6F7F0F5E095DDC04DDC10E4D680C17
:101780004DE7061D720FAD7D0A0E143F6703012958
:10179000160213C01681D54DE30E121C016D7F0F8A
:1017A00031A3131E1E13C53F4D021035413FF0E01B
:1017B000B20B3DA70F1DA80C7E0323076203012572
:1017C00075D9239C0580E0F0FC4A072DD210A111A9
:1017D0005D7B0C8EC0750473F9F80102131F015D67
:1017E0003E0535375D1D03219F15E11D31117D44F7
:1017F0000D15E0C5AB2DCB0D2DDD0D4D650F463F15
:101800009E4A007D4DFB0F2924DD070C7D94081DA9
:1018100097033D2E042D30065D15113F7F0FBA064C
:101820008E1FA1060D14A110E404C0F0FE8BE40489
:10183000C0F8FEA13AE04B7C043F0F01EE0342806A
:10184000AB4DFA08711671F1B1FEBDBA035D4911D5
:10185000CF0F0FF007A53DBDF309A18BD5D125D63C
:1018600062027545722D06071D8208253C4DA305B1
:101870003DA6056DB408DEF85612AD4A064D500F70
:101880002D3E056DD409853E0D1121032EC0961104
:10189000797F29808E80860325E45E0713046D8698
:1018A000032EFFA212393A2EF03C137DC20925A85F
:1018B0006D5F120F14F01F4F05592C6BFEF0221DA7
:1018C000C103CE03BF03DDC1030212FE0176003A5D
:1018D0008E83420A85757D40057FFFFFD00A8F8089
:1018E000FC6B0AAE011A0FF13E0211FC3E96003F5E
:1018F000FE0100052541419A25B58EC07408AD0052
:101900000519565D7D0B36F8A07DBF032EC0EC098E
:101910002DFC124E7F20031D2E0A72E0854DB80368
:101920005D32147C04FF033FA80C85E0D60F40DD38
:1019300021031DCF0E9D60044DA00562E0A095B46B
:101940005FFEE0A9064D030D6E8085067D74059D42
:10195000AD0B4D75042DFD036E87BA0C4F7F0F63E1
:10196000041DBE066D9A058E1FF1101DC7043D6E45
:10197000080E6D07DD1201B8013D51071D03111955
:10198000181D9B161E011D091A3F331E03CC111A88
:101990001F3B1A073F520F04210C1E1FBF164303A3
:1019A000FC081E01D0043F3FFC670412F8082D47D5
:1019B0001112E00825B412C0082DD9051280083D87
:1019C00038071108520708213F1C06013EFCFF01A1
:1019D000210A1203082D9D122C05073CFC7F8B1158
:1019E00020080F3CFC3FC0FFF008131FE00A11085D
:1019F00020050FF01F0008100607F80F00FE081062
:101A00000603FC0F00FC08100601FE0F00F8081288
:101A100000591006F00F3C7C800812E00842C00814
:101A2000133CE07912C008114D33008008321F08C2
:101A300052E00852C020428028437C00403004FC21
:101A400000FE504004FC01FC084303F8684307F023
:101A50007830040FE01F8810041FC01F3B30067C45
:101A6000FC3F807FA8437F00C026FF522108251F2E
:101A700011D84004FF03F8E8254B87003E10521FA1
:101A800008563F28567F38255027F03F8C1D530BB2
:101A9000563F7021084707F8942590561FA0470F1E
:101AA000E0B0470780C02E03EB1335940E48FCD8F6
:101AB0000901FF0101CE015E8075095EC0D5095E96
:101AC000E003157EF0070B4D0F0643F8F908B0044C
:101AD000FCF00308B0047EE00708433EC010700429
:101AE0003FC00F082E8088061F800F24073207088A
:101AF0001D11041280021D1E03327F082D74061270
:101B00000E1A2DFE032C040C001F950D1D610629D5
:101B1000D82DAC0631081D960429DC2D0A031D942E
:101B2000042AE3DE1D180319EA120F08123F4A10B7
:101B3000041F003E082D730428043EFC1FF23108E8
:101B40002DC7041E3E2604011C0861285138614837
:101B500053F87F5851683004F0FFE7786188519856
:101B600071A861B821C81203C831D8830F00E852A8
:101B7000F8F865086518E530A548E560E5806598E2
:101B800065A865B865C865D80004FF801F00016DB1
:101B9000061E7C04A24A048617DC0802030406071A
:101BA00008099C171116611A0007000204060800B4
:041BB0000000000031
:040000050800021DD0
:00000001FF
